:100000000EC064C063C062C061C060C05FC05EC03B
:100010005DC05CC05BC05AC059C058C057C01124F5
:0E0020001FBECFEDCDBF03D000C0F894FFCFC0
:10002E008FE187BB18BA32D0789488B38D7F88BBA6
:10003E002FE38DE093E0215080409040E1F700C027
:10004E00000088B3826088BB2FE38DE093E02150DF
:10005E0080409040E1F700C0000088B3886088BB04
:10006E002FE38DE093E0215080409040E1F700C0F7
:10007E00000088B3877F88BB2FE38DE093E021508B
:0C008E0080409040E1F700C00000CFCFA0
:10009A008AB582608ABD8AB580648ABD83B7856065
:1000AA0083BF83B78D7F83BF8FEF89BD89B7806197
:1000BA0089BF8CB581688CBD12BE8CB58E778CBD1C
:0200CA00089597
:0200CC0099CFCA
:00000001FF
